:100000000C9465000C948D000C948D000C948D0064
:100010000C948D000C948D000C948D000C948D002C
:100020000C948D000C948D000C948D000C94750D27
:100030000C948D000C948D000C948D000C948D000C
:100040000C9435110C948D000C9426130C946D13A4
:100050000C948D000C948D000C948D000C948D00EC
:100060000C94A10F0C948D000000000024002700C8
:100070002A0000000000250028002B0000000000DE
:1000800023002600290004040404040404040202DA
:100090000202020203030303030301020408102007
:1000A0004080010204081020010204081020000012
:1000B0000007000201000003040600000000000029
:1000C000000042031C066C0EE41411241FBECFEF87
:1000D000D8E0DEBFCDBF12E0A0E0B1E0EAE9FCE28B
:1000E00002C005900D92AE31B107D9F714E0AEE130
:1000F000B2E001C01D92AF39B107E1F710E0CAECE0
:10010000D0E004C02297FE010E944716C23CD107EE
:10011000C9F70E9434150C944B160C940000CF9331
:10012000DF93BC018230910510F462E070E0A09191
:100130009D04B0919E04ED01E0E0F0E040E050E06D
:1001400021C0888199818617970769F48A819B81EC
:10015000309719F09383828304C090939E04809318
:100160009D04FE0134C06817790738F44115510524
:1001700019F08417950708F4AC01FE018A819B8170
:100180009C01E9012097E9F641155105A9F1CA0141
:10019000861B970B049708F4BA01E0E0F0E02AC050
:1001A0008D919C91119784179507F9F46417750741
:1001B00081F412968D919C911397309719F0938347
:1001C000828304C090939E0480939D04FD01329627
:1001D0004CC0CA01861B970BFD01E80FF91F619304
:1001E000719302978D939C9340C0FD01828193810E
:1001F0009C01D9011097A1F680919B0490919C04D9
:10020000892B41F48091F5019091F60190939C0423
:1002100080939B044091F7015091F80141155105DD
:1002200041F44DB75EB78091F3019091F401481B02
:10023000590B20919B0430919C04CA01821B930BA3
:100240008617970780F0AB014E5F5F4F84179507C5
:1002500050F0420F531F50939C0440939B04F901AC
:100260006193719302C0E0E0F0E0CF01DF91CF91A4
:100270000895CF93DF93009709F450C0EC012297C3
:100280001B821A82A0919D04B0919E04109709F1DF
:1002900040E050E0AC17BD0708F1BB83AA83FE0124
:1002A00021913191E20FF31FAE17BF0779F48D91C1
:1002B0009C911197280F391F2E5F3F4F3983288358
:1002C00012968D919C9113979B838A8341155105BA
:1002D00071F4D0939E04C0939D0420C012968D911A
:1002E0009C911397AD01009711F0DC01D3CFFA0177
:1002F000D383C28321913191E20FF31FCE17DF0721
:1003000069F488819981280F391F2E5F3F4FFA01C8
:10031000318320838A819B8193838283DF91CF9174
:100320000895FB01DC014150504048F001900D92CE
:100330000020C9F701C01D9241505040E0F70895D8
:10034000FC0181E090E00190061609F4CF01002045
:10035000D1F701970895FB0151915523A9F0BF01F1
:10036000DC014D9145174111E1F759F4CD010190A0
:10037000002049F04D9140154111C9F3FB01411195
:10038000EFCF81E090E001970895EF92FF920F93F5
:100390001F937C018B01DC01ED91FC91A081B18167
:1003A0006F772D913C91CF01F9010995D701ED911E
:1003B000FC91A081B181000F012F001F110B0F775D
:1003C0002D913C91CF01602FF90109951F910F915B
:1003D000FF90EF900895FC010190F081E02DA08145
:1003E000B1812D913C91CF0160EFF90109950895FC
:1003F000FC010190F081E02DA081B1812D913C9113
:10040000CF0167EFF901099508950F931F938C01B0
:10041000DC01ED91FC91A081B1812D913C91CF0146
:1004200069EFF9010995D801ED91FC91A081B181A5
:100430002D913C91CF0162E0F9010995D801ED9130
:10044000FC91A081B1812D913C91CF0163E0F90134
:1004500009951F910F9108951F93CF93DF93EC019E
:100460008A818823C9F1CE010E94EB01E881F981DC
:10047000A081B1812D913C91CF0169E7F9010995E6
:10048000E881F981A081B1812B813C814D915C9102
:10049000CF01F9016081FA010995E881F981A08114
:1004A000B1812B813C814D915C91CF01F90161813A
:1004B000FA01099512E00AC0EB81FC81E10FF11D00
:1004C0006081CE0170E00E94C5011F5F8A8118170C
:1004D00098F3CE010E94F801DF91CF911F9108950A
:1004E000FC01A081B181ED91FC9111970480F5810F
:1004F000E02DCD0109950895EF92FF920F931F9380
:100500008C017A01DC01ED91FC91A081B1816F70C9
:10051000606E2D913C91CF01F9010995C801B70199
:100520000E94C5011F910F91FF90EF900895EF92E7
:10053000FF920F931F937C018A01DC01ED91FC91E6
:10054000A081B1816F7060692D913C91CF01F9015B
:100550000995D701ED91FC91A081B181602F6F7752
:100560002D913C91CF01F9010995D701ED91FC91B5
:10057000A081B181000F012F001F110B2D913C9123
:10058000CF01602FF90109951F910F91FF90EF9016
:100590000895DF92EF92FF920F931F93CF93DF9313
:1005A000EC01162FD42E022FF32E0E94EB01E881CE
:1005B000F981A081B1812D913C91CF01612FF90189
:1005C0000995202F3F2DC9017C0110E008C0F701DB
:1005D00061917F01CE0170E00E94C5011F5F1D1572
:1005E000B0F3CE010E94F801DF91CF911F910F91DE
:1005F000FF90EF90DF900895FC01603DA9F0613D10
:1006000028F4603959F0603CA1F40BC0603E19F049
:10061000643F79F40CC054A743A7089556A745A793
:10062000089550AB47A7089552AB41AB089554AB22
:1006300043AB0895FC016F3F11F456AB45AB0895F1
:10064000FC0152AF41AF0895FC011582168217825A
:10065000DC0180E018961C9218978F5F119680320B
:10066000C9F710A612A611A605A8F6A9E02D309785
:1006700009F009950895FC017183608312820E943C
:10068000240308958EE192E06CE774E00E943B033E
:1006900008954F925F926F927F928F929F92AF9246
:1006A000BF92CF92DF92EF92FF920F93DF93CF939F
:1006B00000D0CDB7DEB72B017A013A8329838DE0D4
:1006C00061E00E94AB1200E089819A813C0188249C
:1006D00077FC8094982C5701CC24B7FCC094DC2C78
:1006E00011C0C401B3010E948B118DE061E00E9432
:1006F000D112C601B5010E948B118DE060E00E940D
:10070000D1120F5F802F90E08415950554F30F9060
:100710000F90CF91DF910F91FF90EF90DF90CF90EE
:10072000BF90AF909F908F907F906F905F904F9011
:1007300008950F931F938C018DE061E00E94AB122E
:10074000C80162E070E048E250E022ED30E00E9433
:1007500049036AEF70E080E090E00E948B11C801CD
:1007600063E070E048E250E022ED30E00E9449038F
:100770006DE770E080E090E00E948B111F910F9177
:1007800008959A01FA0101900020E9F73197E41BDE
:10079000F50B4E2F0E94C9020895AB0161E70E943C
:1007A000C10308951F93CF93DF93EC0188858137B0
:1007B00031F0893789F5CE010E942C0236C08FA90D
:1007C00098AD892B91F189A59AA5019762E070E017
:1007D0000E94E115162F862F90E00E948F00AC0139
:1007E000DC0121E030E011C0FE01E20FF11D908537
:1007F0009C932F5FFE01E20FF11D8085879588276E
:100800008795890F8D932F5F3F5F311768F3EFA9AD
:10081000F8ADCA01099509C0E9ADFAAD309729F0E4
:1008200069A561502996AE010995DF91CF911F917D
:100830000895CF93DF93EC01A881B981ED91FC91EC
:1008400011970680F781E02DCD010995AC0188A5AF
:10085000882391F0473F510529F418A6CE010E9444
:10086000D20393C089A59AA5FE01E80FF91F40871E
:1008700001969AA789A789C08D81882309F446C06B
:10088000403851050CF042C081508D83FE01E80FC5
:10089000F11D4087882309F078C08E81882309F4F0
:1008A00074C0803D49F1813D28F4803959F0803C85
:1008B00059F51FC0803E19F0843F31F513C0EBA5F8
:1008C000FCA502C0EDA5FEA53097F1F0688570E0AB
:1008D0007695762F6627779567958985680F711DC0
:1008E0008F8111C0EBA9FCA9309771F068858985CB
:1008F00009C0EFA5F8A902C0E9A9FAA9309721F02B
:1009000068858F8170E009951E823FC0403F510588
:1009100014F09A0106C09A01207F3070842F8F70E6
:100920008F83203E3105F1F0213E310554F4203C07
:100930003105D1F0203D3105B9F02039310529F5D7
:1009400011C0243F310571F0253F310524F4203FCB
:100950003105D9F40DC0293F310599F02F3F3105FC
:10096000A1F40BC082E001C081E08D832E830DC015
:1009700081E088A71AA619A608C0CE010E94240308
:1009800004C08EE192E00E940502DF91CF910895AC
:10099000AF92BF92CF92DF92EF92FF920F931F938D
:1009A000CF93DF938C01D62EC72EB42EA22E862F86
:1009B000972F60E071E00E94AB01EC018D2D9C2D22
:1009C0006FE270E00E94A001209779F07C0108940A
:1009D000E11CF11CE114F10441F09E012E5F822F15
:1009E0008E19D80112968C930FC0AD2DBC2DFD0130
:1009F00001900020E9F7ED19EF5FD8011296EC9312
:100A00002D2D3C2DC9017C01F801828190E00E94CE
:100A10008F00FC01D80114969C938E931397129625
:100A20008C911297E80FF11D10821396ED91FC91B5
:100A30001497B0821396ED91FC911497A1821396AE
:100A40008D919C91149712964C9150E042505040D9
:100A50000296B7010E949101DF91CF911F910F91F2
:100A6000FF90EF90DF90CF90BF90AF9008950F93DD
:100A70001F938C018CE794E00E94B613D801ED918E
:100A8000FC9180917E0490917F0493838283809176
:100A9000800490918104A0918204B09183048483A6
:100AA0009583A683B7838091840490918504A09157
:100AB0008604B091870480879187A287B387C80195
:100AC0000E940502C8010E942C02C8010E949903DD
:100AD0001F910F9108950F931F93CF93DF93B82F1A
:100AE000833008F075C090E00196A82FAA0FAA0FD6
:100AF000AA0F0197A53108F0A4E1482F440F440F35
:100B0000440F71E050E0C62FD0E001E010E01EC0BD
:100B1000842F82508231C0F4242F30E0F901EF5944
:100B2000FD4F8081823080F4572BF901EE0FFF1FBB
:100B3000E858FD4F11821082872F90E08C239D236F
:100B4000892B11F011830083770F4F5F4A1700F351
:100B5000BB2361F4852F8C7FF8942BB1982F90954F
:100B600092238623982B9BB9789432C0B13009F533
:100B7000F89495B1852F8F7380958923962F9F7355
:100B80009523892B85B948B1252F30E0862F90E039
:100B90002823392386E0359527958A95E1F75295E4
:100BA00056955695537050955423522B58B97894B6
:100BB0000FC0852F8F70F89428B1982F990F990F37
:100BC000909592238623880F880F982B98B9789454
:100BD000DF91CF911F910F910895482F863018F51E
:100BE0002091590230915A02672B81F481E090E004
:100BF00002C0880F991F4A95E2F7809590952823A7
:100C0000392330935A0220935902089581E090E0ED
:100C100002C0880F991F4A95E2F7282B392B309391
:100C20005A02209359020895833028F4E82FF0E007
:100C3000E55AFD4F60830895CF93DF93C3EED2E072
:100C4000CE010E94EF0B239683E0C730D807C1F78F
:100C5000DF91CF9108950F931F93CF93DF938B0173
:100C6000843178F5C82FD0E0FE01EF59FD4FE081C7
:100C7000E33091F0E43029F582508C30E0F49E01AD
:100C800022503040C901880F991F820F931F8D5148
:100C90009D4F0E94870C0FC0833051F0853041F08A
:100CA000863031F0893021F08A3011F08B3019F420
:100CB000B8010E944B12CC0FDD1FC858DD4F1983BD
:100CC0000883DF91CF911F910F910895AF92BF924A
:100CD000DF92EF92FF920F931F93DF93CF930F92C8
:100CE000CDB7DEB7D82E7B01082F10E0F801EF5901
:100CF000FD4F8081863061F48091E002882341F0CD
:100D00006630710529F01092E0028FEF8093FB01AD
:100D10009D2D925099839C30B8F4E4E0EE16F104D6
:100D200099F0C80102975C01AA0CBB1CA80EB91E61
:100D300083EE92E0A80EB91EC5010E94750C8823AF
:100D400019F0C5010E94090C4D2D4E504630B8F4E3
:100D50002091590230915A0292E0E916F10409F00B
:100D6000F1C081E090E0042E02C0880F991F0A9420
:100D7000E2F7282B392B30935A0220935902E9814C
:100D8000E23130F5ED2DE695E695E6959801277070
:100D90003070E114F10471F4F0E0EB58FD4F81E0A4
:100DA00090E002C0880F991F2A95E2F72081282B36
:100DB00020830EC0F0E0EB58FD4F81E090E002C0D0
:100DC000880F991F2A95E2F78095208182238083DE
:100DD000F801EE0FFF1FE858FD4F11821082F3E07B
:100DE000EF16F10409F452C084E0E816F1045CF453
:100DF00091E0E916F104D1F1E2E0EE16F1049CF481
:100E0000EF2819F198C0F6E0EF16F10409F47CC060
:100E100087E0E816F10409F480C094E0E916F104D3
:100E200009F089C053C0463008F099C0E981E23129
:100E300040F48D2D60E00E94AB128D2D60E00E9489
:100E4000D1120F591D4F82E073C0F981F23108F0C1
:100E500086C08D2D60E00E94AB128D2D60E00E9457
:100E6000D1120F591D4FF801108279C0F981F2316A
:100E700008F075C08D2D60E00E94D1128D2D61E0CB
:100E80000E94AB120F591D4F81E052C0F3E0DF16F4
:100E900081F085E0D81669F096E0D91651F0E9E0C6
:100EA000DE1639F0FAE0DF1621F08BE0D81609F0F3
:100EB00056C08D2D61E00E94AB128D2D60E070E078
:100EC0000E944B120F591D4F83E032C0F981FC3054
:100ED00008F045C0F801EF59FD4F84E08083C80158
:100EE00002977C01EE0CFF1CE80EF91E83EE92E0E7
:100EF000E80EF91EC7010E94750C882381F5C70111
:100F0000B8010E946E0D2BC09EEED90EE1E0ED15EA
:100F100030F10F591D4F86E00BC08D2D60E00E940F
:100F2000AB128D2D60E00E94D1120F591D4F87E04A
:100F3000F801808314C08EE192E065E071E00E94C8
:100F4000CD030DC081E090E0042E02C0880F991FF0
:100F50000A94E2F780959095282339230CCF0F90BF
:100F6000CF91DF911F910F91FF90EF90DF90BF9095
:100F7000AF9008951F938091E002882329F010928A
:100F8000E0028FEF8093FB0110925B0210927502DA
:100F900010925E0210925C021092760210925F0232
:100FA00010925D02109277021092600210E0812F81
:100FB00067E070E00E9466061F5F1431C1F710926F
:100FC0005A02109259021F9108950F931F930EE138
:100FD00012E0C80166E171E042E023E00E94C8042B
:100FE000C80160EE4BE256E00E94FC02C80160E9D5
:100FF0004BE655E00E94FC02C80160EC4DEE55E066
:101000000E94FC02C80160ED44E156E00E94FC022F
:10101000C80164EF46E656E00E94FC02C80160EF9A
:101020004DE859E00E942003C8016FEF4AEB57E0FA
:101030000E941A03C80140E051EE60E070E00E9497
:1010400037050E94BA071F910F9108951F9310E072
:10105000812F8251823028F4812F66E070E00E9457
:1010600066061F5F1431A1F781E08093E00283E7F9
:1010700093E00E94010F1F9108951F93CF93DF9378
:10108000282F162FC82FD0E0FE01EB58FD4F80818E
:101090001823442331F4FE01E25AFD4F8081811769
:1010A00051F08EE192E0622F412F50E00E949702B2
:1010B000C25ADD4F1883DF91CF911F91089580911F
:1010C0005B02882349F069B18091750268236C7FC7
:1010D00080E040E00E943D0880915C02882379F026
:1010E00083B166B16295660F660F607C8F73682B63
:1010F00080917602682381E040E00E943D08809163
:101100005D02882379F086B190E08C73907095959C
:1011100087959595879560917702682382E040E0F6
:101120000E943D080895EF92FF920F931F93CF9373
:10113000DF93F82EEB01E42E8FEF6F3F780719F461
:10114000C0E0D0E014C083E793E06F2D0E94320E20
:1011500083E793E06C2F0E94B40E83E793E00E9434
:10116000E40E8091E1029091E2020E94E41183E793
:1011700093E06F2D4E2D0E94F40E0E2D10E083E7AC
:1011800093E00E943C0E0817190791F4F092C002F8
:10119000C093C102C2ECD2E00C0F1D1F05C083E753
:1011A00093E00E94450E8993C017D107C1F712C082
:1011B00083E793E00E943C0E801791072CF48EE1A8
:1011C00092E067E671E004C08EE192E06FE871E0C2
:1011D0000E94CD0382E0E80E8EE192E067E74E2D9B
:1011E00020EC32E00E94C902DF91CF911F910F9154
:1011F000FF90EF900895AF92BF92CF92DF92EF925F
:10120000FF920F931F93CF93DF930E945F0804C058
:101210008EE192E00E9419048EE192E00E94700239
:10122000892BB1F70E947D116093A0027093A102F7
:101230008093A2029093A302A090A402B090A50272
:10124000C090A602D090A7022091F9013091FA0136
:1012500079010027F7FC0095102F6A197B098C098A
:101260009D09E616F7060807190708F04BC0EA0CB7
:10127000FB1C0C1D1D1DE092A402F092A502009320
:10128000A6021093A702C1E6D2E012EF1630C0F416
:1012900088818230A9F48091590290915A02012EDE
:1012A00002C0959587950A94E2F780FF09C0812FC7
:1012B0000E942912AC018EE192E0612F0E947C0213
:1012C0001F5F2196163011F78091FB0187FD1AC030
:1012D00010E00EC0F901EE0FFF1FE20FF31FE855FB
:1012E000FD4F6181808170E042810E9493081F5F01
:1012F000212F30E08091FB01992787FD909582177F
:10130000930744F7DF91CF911F910F91FF90EF90DA
:10131000DF90CF90BF90AF900895BF92CF92DF92B1
:10132000EF92FF920F931F93CF93DF93162FEA0153
:101330008F3609F44FC1803750F48B3609F46AC1F7
:101340008D3609F4D3C1893609F03FC222C28637EF
:1013500069F0873720F4803709F037C2E4C0883756
:1013600009F4C7C08A3709F030C219C1898185FFE5
:1013700005C08EE192E066EB71E054C0688188712F
:10138000883059F1893018F4882341F01EC2803129
:1013900009F440C0883109F018C264C083E793E0C3
:1013A0000E94320E02E00EC0FE01E00FF11D6181CD
:1013B0006795662767958081680F83E793E00E94B1
:1013C000B40E0E5F011780F383E793E00E94E40EF2
:1013D00086E490E00E94E411F8C19B818A81163076
:1013E00071F4979599279795980F4D8147954427C4
:1013F00047958C81480F862F692F70E008C097951C
:1014000099279795980F862F6FEF7FEF492F0E94AE
:101410009308DBC18091FB0187303CF08EE192E0C4
:1014200062EE71E00E94CD03D0C18F5F8093FB011B
:10143000992787FD9095FC01EE0FFF1FE80FF91F1C
:10144000E855FD4F60838B818795882787959A8122
:10145000890F81838D818795882787959C81890F46
:101460008283B3C15091FB01151634F420E0C52FDF
:10147000DD27C7FDD09511C08FEF8093FB01A5C17B
:10148000FC01EE0FFF1FE80FF91FE855FD4F6083C9
:10149000662311F0422F24C02F5F822F90E0C817DF
:1014A000D90774F740E01CC04830C8F4C901019660
:1014B000D901AA0FBB1FA20FB31FA855BD4FFC0136
:1014C000EE0FFF1FE80FF91FE855FD4F80818C9349
:1014D000808111968C931197828112968C934F5F25
:1014E000242F30E0C217D307FCF651505093FB0174
:1014F0006CC18981682F70E07695762F6627779585
:1015000067958881680F711D6115710521F07093D1
:10151000E2026093E1028091E002882309F055C164
:101520000E94260852C1653008F44FC1F880C98076
:10153000EA80BB80DC808F2D82508C3008F045C162
:101540000F2D10E0C8010297EC01CC0FDD1FC80F72
:10155000D91FCD51DD4FCE010E94750C882319F0A3
:10156000CE010E94090C4E2D50E05695542F442771
:10157000579547954C0D511D2D2D30E03695322F46
:101580002227379527952B0D311DCE01B8010E94DA
:10159000EF0C8F2D64E070E00E94660616C1623089
:1015A00008F413C1898190E09695982F8827979524
:1015B00087952881820F911D9093FA018093F901FC
:1015C0000A970CF002C18AE090E09093FA018093B0
:1015D000F901FBC0623008F4F8C08981682F70E01F
:1015E0001230A1F08A8190E09695982F88279795E0
:1015F0008795682B792B133049F02B81922F929588
:10160000990F990F907C80E0682B792B88810E943C
:101610002B06DBC08CE794E060EF0E94A8148CE7F7
:1016200094E06CE60E94A81400E01EEF16C0123190
:10163000A0F48CE794E060E00E94A8148CE794E0AA
:1016400061E00E94A8148CE794E061E00E94A81475
:101650008CE794E061E00E94A814802F8E508630C1
:1016600050F48CE794E062E00E94A8148CE794E0C8
:101670006AE00E94A814033051F0053041F00630B2
:1016800031F0093021F00A3011F00B3051F48CE7C1
:1016900094E063E00E94A8148CE794E068E00E9464
:1016A000A8141C3050F48CE794E064E00E94A81465
:1016B0008CE794E06EE00E94A814802F8251823063
:1016C00050F48CE794E066E00E94A8148CE794E064
:1016D00061E00E94A8148CE794E06FE70E94A814D0
:1016E0000F5F1F5F043109F0A2CF6AC0662309F4BF
:1016F0006CC008818CE794E060EF0E94A8148CE72E
:1017000094E06EE60E94A8148CE794E0602F0E949B
:10171000A814043108F054C0C02FD0E0FE01EF59E6
:10172000FD4F8CE794E060810E94A8148E01000FA9
:10173000111F08581D4FF80160816F778CE794E006
:101740000E94A814F80160817181CB018078892BF7
:1017500049F0660F672F661F770B6F778CE794E071
:101760000E94A814CC0FDD1FC858DD4F2881398195
:10177000C9018070907C892B19F1330F220B330F34
:10178000322F221F622F6F778CE794E00E94A814FB
:1017900017C08CE794E060EF0E94A8148CE794E0F7
:1017A0006AE60E94A81402EF063010F06FE701C04D
:1017B000602F8CE794E00E94A8140F5F0630A1F719
:1017C0008CE794E067EF0E94A814DF91CF911F91FE
:1017D0000F91FF90EF90DF90CF90BF900895FC01A4
:1017E000809107038C3090F480838F5F8093070390
:1017F000815090E0FC01EE0FFF1FE80FF91FE85F3A
:10180000FC4F88EB9BE09283818308958FEF808368
:101810000895DC018C9190E0FC01EE0FFF1FE80FB2
:10182000F91FE85FFC4F80818F7B80838C916CE097
:101830000E94D51590E0AC01440F551F480F591F69
:10184000440F551F440F551F20E030E0C901840F9D
:10185000951FFC01EE0FFF1FE80FF91FE85FFC4F1B
:10186000808186FD05C02F5F3F4F2C30310571F719
:101870000895FC0120812C30B8F58181992787FDDE
:10188000909548E850E0481B590B440F551F440FF2
:10189000551F6417750784F08281992787FD9095FD
:1018A00048E552E0481B590B440F551F440F551F84
:1018B000641775070CF4AB0142505040CA01AA27C7
:1018C00097FDA095BA2F880F991FAA1FBB1F4FB76E
:1018D000F89430E0F901EE0FFF1FE20FF31FE85F0D
:1018E000FC4F928381834FBF0895FC01808190E07B
:1018F000FC01EE0FFF1FE80FF91FE85FFC4F80812E
:10190000829586958695817009F081E00895AF9261
:10191000BF92CF92DF92EF92FF920F931F93CF93DC
:10192000DF93EC019B0182E0603278070CF048C045
:1019300077FF03C020E030E005C0653B710514F07F
:1019400024EB30E000D000D0B901882777FD8095E6
:10195000982F2981332727FD3095E8E8AE2EB12C4A
:10196000A21AB30AAA0CBB1CAA0CBB1CCC24B7FC41
:10197000C094DC2CEA81FF27E7FDF09528E532E0F2
:101980002E1B3F0B220F331F220F331F442737FD1F
:101990004095542FEDB7FEB72183328343835483A0
:1019A00020E030E040E050E004EBE02EF12C012D8F
:1019B000112D0E946D159B010F900F900F900F90AD
:1019C000CE01B9010E94390CDF91CF911F910F9187
:1019D000FF90EF90DF90CF90BF90AF900895CF929F
:1019E000DF92EF92FF921F93CF93DF93EC01162FBC
:1019F0007A01690188818C3008F064C0862F61E02B
:101A00000E94AB12888190E0FC01EE0FFF1FE80FEF
:101A1000F91FE85FFC4F1F738081807C812B8083DE
:101A200080E292E08E199F0964E070E00E94E11567
:101A3000698380E699E08C199D0964E070E00E945A
:101A4000E1156A83A8818A2F6CE00E94D515682F62
:101A500070E0AB01440F551F460F571F440F551F31
:101A6000440F551F20E030E0C901840F951FFC0191
:101A7000EE0FFF1FE80FF91FE85FFC4F808186FD26
:101A800015C02F5F3F4F2C30310571F724C01092E5
:101A9000800082E080938100109285001092840083
:101AA000B19A80916F00826080936F008A2F90E0DE
:101AB000FC01EE0FFF1FE80FF91FE85FFC4F80816C
:101AC000806480838881DF91CF911F91FF90EF9098
:101AD000DF90CF900895672BD1F2E8CF40E252E03B
:101AE00020E639E00E94EF0C08951F920F920FB686
:101AF0000F9211242F933F934F935F936F937F9394
:101B00008F939F93AF93BF93EF93FF9380912C0399
:101B100087FF05C010928500109284002BC0209191
:101B20002C03332727FD30958091070390E0281779
:101B3000390704F580912C03992787FD9095FC01C6
:101B4000EE0FFF1FE80FF91FE85FFC4F808186FF53
:101B500011C080912C03992787FD9095FC01EE0F11
:101B6000FF1FE80FF91FE85FFC4F80818F7360E073
:101B70000E94D11280912C038F5F80932C032091BF
:101B80002C03332727FD30958091070390E0281719
:101B900039070CF04EC080912C038C300CF049C0FA
:101BA000209184003091850080912C03992787FD36
:101BB0009095FC01EE0FFF1FE80FF91FE85FFC4F47
:101BC00081819281280F391F3093890020938800EA
:101BD00080912C03992787FD9095FC01EE0FFF1F44
:101BE000E80FF91FE85FFC4F808186FF2AC08091D3
:101BF0002C03992787FD9095FC01EE0FFF1FE80F3E
:101C0000F91FE85FFC4F80818F7361E00E94D11261
:101C100018C080E49CE905C0809184009091850003
:101C2000049690938900809388008FEF80932C0313
:101C300008C0809184009091850084549C4948F3A9
:101C4000EBCFFF91EF91BF91AF919F918F917F91DA
:101C50006F915F914F913F912F910F900FBE0F9019
:101C60001F90189581E08093720360934F03109248
:101C7000700310927103089520914E0330E080911B
:101C80004D03281B3109C901089540914D038091EE
:101C90004E03481718F02FEF3FEF0AC0E42FF0E093
:101CA000E35DFC4F8081282F30E04F5F40934D0370
:101CB000C9010895E0914D0380914E03E81718F093
:101CC000EFEFFFEF06C0F0E0E35DFC4F8081E82F0F
:101CD000F0E0CF01089508951092760310927503F5
:101CE00088EE93E0A0E0B0E08093770390937803D0
:101CF000A0937903B0937A0381E092E09093740308
:101D0000809373030895CF92DF92EF92FF920F9327
:101D10001F93CF93DF937C016B018A018091720343
:101D20008823A1F0C0E0D0E00DC0D701ED91FC9177
:101D3000D601AC0FBD1F0190F081E02DC7016C9161
:101D400009952196C017D10780F304C0CB01642FF9
:101D50000E94860FC801DF91CF911F910F91FF90D4
:101D6000EF90DF90CF900895DF93CF930F92CDB790
:101D7000DEB7FC016983809172038823C9F08091EA
:101D80007103803238F081E090E09383828320E019
:101D900030E015C080917003E82FF0E0E05BFC4F6D
:101DA000998190838F5F809370038093710305C046
:101DB000CE01019661E00E94860F21E030E0C9016A
:101DC0000F90CF91DF91089580914F0360E573E00C
:101DD0004091710321E00E94430F10927003109212
:101DE0007103109272030895413208F040E2862F89
:101DF0006DE273E00E940C0F10924D0380934E032E
:101E0000089510924D0310924E0310927003109299
:101E100071030E941C110895982F413210F040E088
:101E200030C080917F038823E1F781E080937F03B6
:101E30008FEF8093EA031092A50341504093A603CD
:101E40004F5F990F91609093800385EE8093BC0063
:101E500080917F038130E1F38091A503841710F412
:101E60004091A50320E030E00AC0FB01E20FF31F20
:101E7000D901AB57BC4F8C9180832F5F3F4F241704
:101E8000A0F3842F08951F93582F122F413210F082
:101E900081E03AC080917F038823E1F782E080935C
:101EA0007F038FEF8093EA031092A5034093A6036C
:101EB000A5E8B3E0FB0102C081918D938E2F861BB4
:101EC0008417D0F3852F90E0880F991F80938003AB
:101ED00085EE8093BC00112321F080917F03823036
:101EE000E1F38091EA038F3F11F480E00DC080910F
:101EF000EA03803211F482E007C08091EA03803364
:101F000011F084E001C083E01F910895482F6132F1
:101F100010F081E0089580917F03843011F082E019
:101F200008956093C803A7EAB3E0842F9C01F901E8
:101F300002C081918D938E2F841B8617D0F380E091
:101F400008951F920F920FB60F9211242F933F9373
:101F50004F935F936F937F938F939F93AF93BF93B1
:101F6000EF93FF938091B90090E0887F9070803666
:101F7000910509F4DCC081369105CCF588329105D4
:101F800009F47BC089329105B4F48031910509F4DC
:101F90006FC0813191053CF4009709F431C1089775
:101FA00009F039C165C08831910509F466C0809790
:101FB00009F031C17DC08034910509F49FC081349E
:101FC000910544F48033910509F47DC0C89709F068
:101FD00022C184C08035910509F484C088359105FB
:101FE00009F491C08834910509F015C198C0883969
:101FF000910509F4FDC089399105ECF48837910504
:1020000009F495C0893791054CF48836910509F497
:102010008EC08037910509F0FEC089C088389105CF
:1020200009F4E6C08039910509F487C0803891052C
:1020300009F0F1C082C0803B910509F4B0C0813B3A
:1020400091054CF4803A910509F489C0883A9105CC
:1020500009F0E1C0A4C0803C910509F4CDC0883CE2
:10206000910509F4C9C0883B910509F0D4C0ACC002
:10207000809180038093BB00B9C09091A5038091AB
:10208000A603981768F49091A503E92FF0E0EB57A9
:10209000FC4F80818093BB009F5F9093A503A6C0F7
:1020A00085ED8093BC008091BC0084FDFCCFB1C065
:1020B00080E28093EA0385ED8093BC008091BC00B0
:1020C00084FDFCCFA6C080E38093EA0385ED809376
:1020D000BC008091BC0084FDFCCF9BC088E3809352
:1020E000EA038AC08091A5039091BB00E82FF0E03D
:1020F000EB57FC4F90838F5F8093A5039091A503CE
:102100008091A60371C08091A5039091BB00E82F38
:10211000F0E0EB57FC4F90838F5F8093A50385ED34
:102120008093BC008091BC0084FDFCCF72C083E032
:1021300080937F031092E90359C08091E9038032B4
:1021400008F056C08091E9039091BB00E82FF0E0C1
:10215000E753FC4F90838F5F8093E90347C08091E2
:10216000E903803230F4E091E903F0E0E753FC4FFB
:10217000108285ED8093BC008091BC0084FDFCCF73
:1021800010927F036091E903E0918303F09184034F
:1021900089EC93E070E009951092E9032DC084E08A
:1021A00080937F031092C7031092C803E0918103CC
:1021B000F091820309958091C803882329F481E076
:1021C0008093C8031092A7039091C703E92FF0E012
:1021D000E955FC4F80818093BB009F5F9093C703BC
:1021E0009091C7038091C803981710F485EC01C043
:1021F00085E88093BC000FC085EC8093BC0009C0CB
:102200001092EA0385ED8093BC008091BC0084FDB0
:10221000FCCF10927F03FF91EF91BF91AF919F91FF
:102220008F917F916F915F914F913F912F910F907F
:102230000FBE0F901F90189510927F0382E161E00E
:102240000E94D11283E161E00E94D112E9EBF0E03B
:1022500080818E7F808380818D7F808388E48093DE
:10226000B80085E48093BC0008951F920F920FB6CA
:102270000F9211242F933F938F939F93AF93BF930C
:102280008091EF039091F003A091F103B091F203DC
:102290003091F3030196A11DB11D232F2D5F2D3722
:1022A00020F02D570196A11DB11D2093F3038093BB
:1022B000EF039093F003A093F103B093F2038091A6
:1022C000EB039091EC03A091ED03B091EE03019626
:1022D000A11DB11D8093EB039093EC03A093ED033C
:1022E000B093EE03BF91AF919F918F913F912F914A
:1022F0000F900FBE0F901F9018958FB7F8942091F4
:10230000EF033091F0034091F1035091F2038FBF3E
:10231000B901CA0108959B01AC017FB7F89480917F
:10232000EB039091EC03A091ED03B091EE0366B541
:10233000A89B05C06F3F19F00196A11DB11D7FBF7D
:10234000BA2FA92F982F8827860F911DA11DB11D87
:1023500062E0880F991FAA1FBB1F6A95D1F7BC01C5
:102360002DC0FFB7F8948091EB039091EC03A091FE
:10237000ED03B091EE03E6B5A89B05C0EF3F19F061
:102380000196A11DB11DFFBFBA2FA92F982F882735
:102390008E0F911DA11DB11DE2E0880F991FAA1F8C
:1023A000BB1FEA95D1F7861B970B885E9340C8F256
:1023B000215030404040504068517C4F211531053C
:1023C0004105510571F60895019739F0880F991F5D
:1023D000880F991F02970197F1F70895789484B5B3
:1023E000826084BD84B5816084BD85B5826085BD11
:1023F00085B5816085BDEEE6F0E0808181608083F7
:10240000E1E8F0E0108280818260808380818160D9
:102410008083E0E8F0E0808181608083E1EBF0E0A0
:10242000808184608083E0EBF0E080818160808344
:10243000EAE7F0E08081846080838081826080832D
:102440008081816080838081806880831092C10058
:102450000895982F8E3008F09E5097708091FC015F
:102460008295880F880F807C892B80937C008091D7
:102470007A00806480937A0080917A0086FDFCCF98
:102480002091780040917900942F80E030E0282B53
:10249000392BC90108951F93CF93DF93182FEB01B8
:1024A00061E00E94AB12209709F44AC0CF3FD105EA
:1024B00009F449C0E12FF0E0E255FF4F84918330E9
:1024C000C1F0843028F4813051F08230B1F50CC075
:1024D000863019F1873049F1843079F514C084B51C
:1024E000806884BDC7BD33C084B5806284BDC8BD6B
:1024F0002EC080918000806880938000D0938900F6
:10250000C093880024C08091800080628093800006
:10251000D0938B00C0938A001AC08091B00080686D
:102520008093B000C093B30012C08091B00080626D
:102530008093B000C093B4000AC0C038D1051CF429
:10254000812F60E002C0812F61E00E94D112DF91F3
:10255000CF911F910895482F50E0CA0186569F4F92
:10256000FC0124914A575F4FFA0184918823C1F0FE
:10257000E82FF0E0EE0FFF1FE859FF4FA591B4914F
:10258000662341F49FB7F8948C91209582238C9315
:102590009FBF08959FB7F8948C91822B8C939FBF17
:1025A0000895482F50E0CA0182559F4FFC012491A5
:1025B000CA0186569F4FFC0194914A575F4FFA011A
:1025C0003491332309F440C0222351F1233071F0B8
:1025D000243028F42130A1F0223011F514C0263027
:1025E000B1F02730C1F02430D9F404C080918000CC
:1025F0008F7703C0809180008F7D8093800010C012
:1026000084B58F7702C084B58F7D84BD09C0809169
:10261000B0008F7703C08091B0008F7D8093B000B1
:10262000E32FF0E0EE0FFF1FEE58FF4FA591B4919E
:102630002FB7F894662321F48C919095892302C0DA
:102640008C91892B8C932FBF089508951F920F9220
:102650000FB60F9211242F933F934F938F939F9315
:10266000EF93FF934091C6002091340430913504DC
:102670002F5F3F4F2F733070809136049091370455
:102680002817390759F0E0913404F0913504EC50E3
:10269000FC4F40833093350420933404FF91EF9135
:1026A0009F918F914F913F912F910F900FBE0F905F
:1026B0001F901895E0918804F0918904E05CFF4F29
:1026C0008191919120813181821B930B8F73907046
:1026D000892B11F00E94251308951F920F920FB6B7
:1026E0000F9211242F933F934F935F936F937F9398
:1026F0008F939F93AF93BF93EF93FF9320917804B1
:102700003091790480917A0490917B0428173907DD
:1027100031F48091C1008F7D8093C10016C0E0919B
:102720007A04F0917B04E85CFB4F408180917A044D
:1027300090917B04019660E470E00E94E115909313
:102740007B0480937A044093C600FF91EF91BF9180
:10275000AF919F918F917F916F915F914F913F9139
:102760002F910F900FBE0F901F901895AF92BF92B0
:10277000DF92EF92FF920F931F93CF93DF93EC01C1
:102780007A018B01DD24403081EE580780E0680734
:1027900080E0780711F0DD24D39491E0A92EB12CCC
:1027A000EC89FD89DD2069F0C5010E8C02C0880F1F
:1027B000991F0A94E2F7808360E079E08DE390E06E
:1027C00005C0108260E874E88EE190E0A8019701EE
:1027D0000E94F41521503040404050405695479596
:1027E0003795279580E12030380720F0DD2011F063
:1027F000DD24D6CFE889F9893083EA89FB892083F3
:10280000EE89FF89408121E030E0C9010A8C02C0D5
:10281000880F991F0A94E2F7482B4083EE89FF89BD
:102820004081C9010B8C02C0880F991F0A94E2F7FE
:10283000482B4083EE89FF894081C9010C8C02C07E
:10284000880F991F0A94E2F7482B4083EE89FF898D
:1028500080810D8C02C0220F331F0A94E2F720956D
:1028600028232083DF91CF911F910F91FF90EF904C
:10287000DF90BF90AF900895DC011C96ED91FC9124
:102880001D97E05CFF4F2191319180819181281B40
:10289000390B2F733070C9010895DC011C96ED913E
:1028A000FC911D97E05CFF4F20813181E054F040A6
:1028B000DF01AE5BBF4F8D919C91119728173907AF
:1028C00019F42FEF3FEF07C08D919C91E80FF91F8E
:1028D0008081282F30E0C9010895DC011C96ED911C
:1028E000FC911D97E05CFF4F20813181E054F04066
:1028F000DF01AE5BBF4F8D919C911197281739076F
:1029000019F42FEF3FEF10C08D919C911197E80FB4
:10291000F91F20818D919C91119701968F73907072
:1029200011969C938E9330E0C9010895FC01868531
:102930009785DC01A05CBF4FFC01EE5BFF4F2D9142
:102940003C9111978081918128173907C1F708952B
:10295000CF93DF93EC01462FEE85FF85E05CFF4FC0
:1029600080819181E054F040019660E470E00E9423
:10297000E1159C01DF01AE5BBF4F8D919C911197DA
:1029800028173907D1F3E05CFF4F80819181E05433
:10299000F040E80FF91F4083EE85FF85E05CFF4FB4
:1029A00031832083EE89FF89208181E090E00D8CC6
:1029B00002C0880F991F0A94E2F7282B208381E038
:1029C00090E0DF91CF91089510927F0410927E04E1
:1029D00088EE93E0A0E0B0E08093800490938104BF
:1029E000A0938204B093830481E192E090937D04EC
:1029F00080937C0484EF93E090938904809388040F
:102A000088E394E090938B0480938A0485EC90E0B3
:102A100090938D0480938C0484EC90E090938F04C9
:102A200080938E0480EC90E09093910480939004C6
:102A300081EC90E0909393048093920486EC90E074
:102A4000909395048093940484E08093960483E0AB
:102A50008093970487E08093980485E0809399049D
:102A600081E080939A040895CF93DF930E94EE1142
:102A70000E94E507CAE5D3E10E94FB082097E1F335
:102A80000E945A13F9CFCF92DF92EF92FF920F93E9
:102A90001F93CF93DF937C016B018A01C0E0D0E0EC
:102AA0000FC0D6016D916D01D701ED91FC910190A0
:102AB000F081E02DC7010995C80FD91F01501040C2
:102AC0000115110571F7CE01DF91CF911F910F9183
:102AD000FF90EF90DF90CF9008952F923F924F920A
:102AE0005F926F927F928F929F92AF92BF92CF929E
:102AF000DF92EF92FF920F931F93DF93CF93CDB7A7
:102B0000DEB73B014C0119012A016D897E898F894D
:102B1000988D6A197B098C099D09621A730A840AC7
:102B2000950AA40193010E94B615E218F30804095E
:102B30001509A80197010E9416162A0D3B1D4C1D70
:102B40005D1DB901CA01CF91DF911F910F91FF90D7
:102B5000EF90DF90CF90BF90AF909F908F907F903D
:102B60006F905F904F903F902F900895629FD0019B
:102B7000739FF001829FE00DF11D649FE00DF11D38
:102B8000929FF00D839FF00D749FF00D659FF00DE7
:102B90009927729FB00DE11DF91F639FB00DE11DD4
:102BA000F91FBD01CF0111240895991B79E004C0DC
:102BB000991F961708F0961B881F7A95C9F780957C
:102BC000089597FB092E07260AD077FD04D049D037
:102BD00006D000201AF4709561957F4F0895F6F79E
:102BE000909581959F4F0895A1E21A2EAA1BBB1BB9
:102BF000FD010DC0AA1FBB1FEE1FFF1FA217B307C9
:102C0000E407F50720F0A21BB30BE40BF50B661FDE
:102C1000771F881F991F1A9469F7609570958095A2
:102C200090959B01AC01BD01CF01089597FB092E42
:102C300005260ED057FD04D0D7DF0AD0001C38F48B
:102C400050954095309521953F4F4F4F5F4F0895D8
:102C5000F6F790958095709561957F4F8F4F9F4FB8
:102C60000895AA1BBB1B51E107C0AA1FBB1FA617D3
:102C7000B70710F0A61BB70B881F991F5A95A9F725
:102C800080959095BC01CD010895EE0FFF1F059032
:0A2C9000F491E02D0994F894FFCFB1
:102C9A002E63707000556E6B6E6F776E2070696E62
:102CAA00206D6F646500433A5C55736572735C53BB
:102CBA00616E74695C417070446174615C4C6F63ED
:102CCA00616C5C54656D705C6275696C6436313137
:102CDA0033323139373732333231383135313433AF
:102CEA002E746D705C506C617465784669726D61A2
:102CFA0074612E637070004932432052656164200A
:102D0A004572726F723A20546F6F206D616E79202E
:102D1A0062797465732072656365697665640049D2
:102D2A0032432052656164204572726F723A2054B0
:102D3A006F6F2066657720627974657320726563A8
:102D4A0065697665640031302D6269742061646456
:102D5A0072657373696E67206D6F6465206973208D
:102D6A006E6F742079657420737570706F727465F4
:102D7A006400746F6F206D616E7920717565726978
:102D8A0065730020009F0400001300FF010000008B
:102D9A0000B40E830E3C0E450E5A0E6B0E00000058
:0E2DAA0000A81443153C146D144D149614002B
:00000001FF
