:100000000C9465000C948D000C948D000C948D0064
:100010000C948D000C948D000C948D000C948D002C
:100020000C948D000C948D000C948D000C94C609DA
:100030000C948D000C948D000C948D000C948D000C
:100040000C942C110C948D000C941D130C946413BF
:100050000C948D000C948D000C948D000C948D00EC
:100060000C94F20B0C948D0000000000240027007B
:100070002A0000000000250028002B0000000000DE
:1000800023002600290004040404040404040202DA
:100090000202020203030303030301020408102007
:1000A0004080010204081020010204081020000012
:1000B0000007000201000003040600000000000029
:1000C00000007602BD0A030FDB1411241FBECFEF20
:1000D000D8E0DEBFCDBF12E0A0E0B1E0E8E8FCE28E
:1000E00002C005900D92A032B107D9F714E0A0E24A
:1000F000B2E001C01D92A13AB107E1F710E0CAECED
:10010000D0E004C02297FE010E943E16C23CD107F7
:10011000C9F70E942B150C9442160C940000CF9343
:10012000DF93BC018230910510F462E070E0A09191
:100130009F04B091A004ED01E0E0F0E040E050E069
:1001400021C0888199818617970769F48A819B81EC
:10015000309719F09383828304C09093A004809316
:100160009F04FE0134C06817790738F44115510522
:1001700019F08417950708F4AC01FE018A819B8170
:100180009C01E9012097E9F641155105A9F1CA0141
:10019000861B970B049708F4BA01E0E0F0E02AC050
:1001A0008D919C91119784179507F9F46417750741
:1001B00081F412968D919C911397309719F0938347
:1001C000828304C09093A00480939F04FD01329623
:1001D0004CC0CA01861B970BFD01E80FF91F619304
:1001E000719302978D939C9340C0FD01828193810E
:1001F0009C01D9011097A1F680919D0490919E04D5
:10020000892B41F48091F7019091F80190939E041D
:1002100080939D044091F9015091FA0141155105D7
:1002200041F44DB75EB78091F5019091F601481BFE
:10023000590B20919D0430919E04CA01821B930B9F
:100240008617970780F0AB014E5F5F4F84179507C5
:1002500050F0420F531F50939E0440939D04F901A8
:100260006193719302C0E0E0F0E0CF01DF91CF91A4
:100270000895CF93DF93009709F450C0EC012297C3
:100280001B821A82A0919F04B091A004109709F1DB
:1002900040E050E0AC17BD0708F1BB83AA83FE0124
:1002A00021913191E20FF31FAE17BF0779F48D91C1
:1002B0009C911197280F391F2E5F3F4F3983288358
:1002C00012968D919C9113979B838A8341155105BA
:1002D00071F4D093A004C0939F0420C012968D9116
:1002E0009C911397AD01009711F0DC01D3CFFA0177
:1002F000D383C28321913191E20FF31FCE17DF0721
:1003000069F488819981280F391F2E5F3F4FFA01C8
:10031000318320838A819B8193838283DF91CF9174
:100320000895FB01DC014150504048F001900D92CE
:100330000020C9F701C01D9241505040E0F70895D8
:10034000FC0181E090E00190061609F4CF01002045
:10035000D1F701970895FB0151915523A9F0BF01F1
:10036000DC014D9145174111E1F759F4CD010190A0
:10037000002049F04D9140154111C9F3FB01411195
:10038000EFCF81E090E0019708950F931F93CF93F3
:10039000DF93B82F833008F075C090E00196A82F46
:1003A000AA0FAA0FAA0F0197A53108F0A4E1482FC0
:1003B000440F440F440F71E050E0C62FD0E001E03D
:1003C00010E01EC0842F82508231C0F4242F30E010
:1003D000F901E85DFD4F8081823080F4572BF901EF
:1003E000EE0FFF1FE15CFD4F11821082872F90E01E
:1003F0008C239D23892B11F011830083770F4F5F8E
:100400004A1700F3BB2361F4852F8C7FF8942BB13E
:10041000982F909592238623982B9BB9789432C07D
:10042000B13009F5F89495B1852F8F7380958923A4
:10043000962F9F739523892B85B948B1252F30E0DE
:10044000862F90E02823392386E0359527958A95D5
:10045000E1F7529556955695537050955423522B6B
:1004600058B978940FC0852F8F70F89428B1982FC1
:10047000990F990F909592238623880F880F982BB8
:1004800098B97894DF91CF911F910F910895482FDB
:10049000863018F52091200230912102672B81F4DB
:1004A00081E090E002C0880F991F4A95E2F780959D
:1004B0009095282339233093210220932002089518
:1004C00081E090E002C0880F991F4A95E2F7282B3F
:1004D000392B30932102209320020895833028F491
:1004E000E82FF0E0EE5DFD4F60830895CF93DF933A
:1004F000CAEAD2E0CE010E944008239682E0CE3CB8
:10050000D807C1F7DF91CF9108950F931F93CF9331
:10051000DF938B01843178F5C82FD0E0FE01E85DD0
:10052000FD4FE081E33091F0E43029F582508C30CA
:10053000E0F49E0122503040C901880F991F820FBC
:10054000931F86559D4F0E94D8080FC0833051F0ED
:10055000853041F0863031F0893021F08A3011F059
:100560008B3019F4B8010E944212CC0FDD1FC15C20
:10057000DD4F19830883DF91CF911F910F9108956B
:10058000AF92BF92DF92EF92FF920F931F93DF9390
:10059000CF930F92CDB7DEB7D82E7B01082F10E096
:1005A000F801E85DFD4F8081863061F48091A702FB
:1005B000882341F06630710529F01092A7028FEF71
:1005C0008093FD019D2D925099839C30B8F4E4E016
:1005D000EE16F10499F0C80102975C01AA0CBB1C4D
:1005E000A80EB91E8AEA92E0A80EB91EC5010E94A3
:1005F000C608882319F0C5010E945A084D2D4E5097
:100600004630B8F4209120023091210292E0E916A0
:10061000F10409F0E0C081E090E0042E02C0880FF0
:10062000991F0A94E2F7282B392B3093210220934B
:100630002002E981E23130F5ED2DE695E695E6956B
:10064000980127703070E114F10471F4F0E0E45C7B
:10065000FD4F81E090E002C0880F991F2A95E2F7D4
:100660002081282B20830EC0F0E0E45CFD4F81E068
:1006700090E002C0880F991F2A95E2F780952081AB
:1006800082238083F801EE0FFF1FE15CFD4F118292
:100690001082F2E0EF16F104E1F083E0E816F104D5
:1006A0004CF4E114F10439F191E0E916F10409F098
:1006B0008BC032C0E4E0EE16F10409F45DC0F4E052
:1006C000EF16F104CCF186E0E816F10409F07CC0E5
:1006D00070C0463008F08CC09981923140F48D2D65
:1006E00060E00E94A2128D2D60E00E94C812085D99
:1006F0001D4F82E066C0F981F23108F079C08D2D7E
:1007000060E00E94A2128D2D60E00E94C812085D78
:100710001D4FF80110826CC0F981F23108F068C0F9
:100720008D2D60E00E94C8128D2D61E00E94A21202
:10073000085D1D4F81E045C0F3E0DF1681F085E0E4
:10074000D81669F096E0D91651F0E9E0DE1639F0D6
:10075000FAE0DF1621F08BE0D81609F049C08D2DA4
:1007600061E00E94A2128D2D60E070E00E944212B2
:10077000085D1D4F83E025C0F981FC30C8F5F80104
:10078000E85DFD4F84E08083C80102977C01EE0C98
:10079000FF1CE80EF91E8AEA92E0E80EF91EC70176
:1007A0000E94C608882321F5C701B8010E94BF092D
:1007B0001FC09EEED90EE1E0ED15D0F0085D1D4F93
:1007C00086E0F801808314C082EB93E060E071E082
:1007D0000E948E0F0DC081E090E0042E02C0880FB1
:1007E000991F0A94E2F780959095282339231DCF0D
:1007F0000F90CF91DF911F910F91FF90EF90DF90BD
:10080000BF90AF9008951F938091A702882329F08D
:100810001092A7028FEF8093FD0110922202109296
:100820003C02109225021092230210923D02109277
:1008300026021092240210923E021092270210E02B
:10084000812F8E50863020F4812F62E070E003C04B
:10085000812F61E070E00E94C0021F5F143181F7B8
:1008600010922102109220021F9108950F931F935E
:1008700002EB13E0C80161E171E042E023E00E9475
:100880008910C80160EE45E852E00E94BD0EC80123
:1008900060E945EC51E00E94BD0EC80160EC47E400
:1008A00052E00E94BD0EC80160ED4EE652E00E948B
:1008B000BD0EC80164EF40EC52E00E94BD0EC801BD
:1008C00060EF4EED55E00E94E10EC8016FEF43E08E
:1008D00054E00E94DB0EC80140E051EE60E070E0A1
:1008E0000E94F8100E9403041F910F9108951F9316
:1008F00010E0812F8251823028F4812F66E070E071
:100900000E94C0021F5F1431A1F781E08093A7020B
:100910008AE393E00E94520B1F9108951F93CF9397
:10092000DF93282F162FC82FD0E0FE01E45CFD4F87
:1009300080811823442331F4FE01EB5DFD4F80815B
:10094000811751F082EB93E0622F412F50E00E941B
:10095000580ECB5DDD4F1883DF91CF911F91089525
:1009600080912202882349F069B180913C0268237A
:100970006C7F80E040E00E948E04809123028823F7
:1009800079F083B166B16295660F660F607C8F73F4
:10099000682B80913D02682381E040E00E948E0434
:1009A00080912402882379F086B190E08C73907056
:1009B000959587959595879560913E02682382E08D
:1009C00040E00E948E040895EF92FF920F931F93D0
:1009D000CF93DF93F82EEB01E42E8FEF6F3F780774
:1009E00019F4C0E0D0E014C08AE393E06F2D0E94B8
:1009F000830A8AE393E06C2F0E94050B8AE393E05D
:100A00000E94350B8091A8029091A9020E94DB11EF
:100A10008AE393E06F2D4E2D0E94450B0E2D10E0C2
:100A20008AE393E00E948D0A0817190791F4F09267
:100A30008702C0938802C9E8D2E00C0F1D1F05C0D1
:100A40008AE393E00E94960A8993C017D107C1F701
:100A500012C08AE393E00E948D0A801791072CF45C
:100A600082EB93E064E671E004C082EB93E06CE813
:100A700071E00E948E0F82E0E80E82EB93E067E760
:100A80004E2D27E832E00E948A0EDF91CF911F9110
:100A90000F91FF90EF900895AF92BF92CF92DF92A7
:100AA000EF92FF920F931F93CF93DF930E94B004B6
:100AB00004C082EB93E00E94DA0F82EB93E00E9485
:100AC000310E892BB1F70E94741160936702709305
:100AD00068028093690290936A02A0906B02B090C2
:100AE0006C02C0906D02D0906E022091FB0130919B
:100AF000FC0179010027F7FC0095102F6A197B098A
:100B00008C099D09E616F7060807190708F04BC07F
:100B1000EA0CFB1C0C1D1D1DE0926B02F0926C0296
:100B200000936D0210936E02C8E2D2E012EF16300D
:100B3000C0F488818230A9F4809120029091210232
:100B4000012E02C0959587950A94E2F780FF09C0AF
:100B5000812F0E942012AC0182EB93E0612F0E9452
:100B60003D0E1F5F2196163011F78091FD0187FD24
:100B70001AC010E00EC0F901EE0FFF1FE20FF31FC5
:100B8000E159FD4F6181808170E042810E94E4045F
:100B90001F5F212F30E08091FD01992787FD9095FF
:100BA0008217930744F7DF91CF911F910F91FF9028
:100BB000EF90DF90CF90BF90AF900895BF92CF920B
:100BC000DF92EF92FF920F931F93CF93DF93162F35
:100BD000EA018F3609F44FC1803750F48B3609F49F
:100BE0006AC18D3609F4D3C1893609F03FC222C2E9
:100BF000863769F0873720F4803709F037C2E4C0C0
:100C0000883709F4C7C08A3709F030C219C1898111
:100C100085FF05C082EB93E063EB71E054C068810F
:100C20008871883059F1893018F4882341F01EC248
:100C3000803109F440C0883109F018C264C08AE3E9
:100C400093E00E94830A02E00EC0FE01E00FF11D56
:100C500061816795662767958081680F8AE393E0D5
:100C60000E94050B0E5F011780F38AE393E00E9458
:100C7000350B86E490E00E94DB11F8C19B818A81EC
:100C8000163071F4979599279795980F4D81479550
:100C9000442747958C81480F862F692F70E008C044
:100CA000979599279795980F862F6FEF7FEF492F8C
:100CB0000E94E404DBC18091FD0187303CF082EBAF
:100CC00093E06FED71E00E948E0FD0C18F5F809333
:100CD000FD01992787FD9095FC01EE0FFF1FE80F9E
:100CE000F91FE159FD4F60838B8187958827879590
:100CF0009A81890F81838D818795882787959C812B
:100D0000890F8283B3C15091FD01151634F420E0A0
:100D1000C52FDD27C7FDD09511C08FEF8093FD0152
:100D2000A5C1FC01EE0FFF1FE80FF91FE159FD4FB0
:100D30006083662311F0422F24C02F5F822F90E042
:100D4000C817D90774F740E01CC04830C8F4C9017F
:100D50000196D901AA0FBB1FA20FB31FA159BD4F06
:100D6000FC01EE0FFF1FE80FF91FE159FD4F8081D5
:100D70008C93808111968C931197828112968C931B
:100D80004F5F242F30E0C217D307FCF65150509329
:100D9000FD016CC18981682F70E07695762F6627FA
:100DA000779567958881680F711D6115710521F030
:100DB0007093A9026093A8028091A702882309F08A
:100DC00055C10E94770452C1653008F44FC1F880C4
:100DD000C980EA80BB80DC808F2D82508C3008F087
:100DE00045C10F2D10E0C8010297EC01CC0FDD1FAB
:100DF000C80FD91FC655DD4FCE010E94C6088823F3
:100E000019F0CE010E945A084E2D50E05695542FED
:100E10004427579547954C0D511D2D2D30E03695A3
:100E2000322F2227379527952B0D311DCE01B80182
:100E30000E9440098F2D64E070E00E94C00216C13C
:100E4000623008F413C1898190E09695982F882725
:100E5000979587952881820F911D9093FC0180932F
:100E6000FB010A970CF002C18AE090E09093FC012C
:100E70008093FB01FBC0623008F4F8C08981682FC1
:100E800070E01230A1F08A8190E09695982F882723
:100E900097958795682B792B133049F02B81922FEA
:100EA0009295990F990F907C80E0682B792B88811F
:100EB0000E948502DBC08EE794E060EF0E949F14E1
:100EC0008EE794E06CE60E949F1400E01EEF16C0CF
:100ED0001231A0F48EE794E060E00E949F148EE748
:100EE00094E061E00E949F148EE794E061E00E942C
:100EF0009F148EE794E061E00E949F14802F8E5033
:100F0000863050F48EE794E062E00E949F148EE7F2
:100F100094E06AE00E949F14033051F0053041F0E4
:100F2000063031F0093021F00A3011F00B3051F465
:100F30008EE794E063E00E949F148EE794E068E0FF
:100F40000E949F141C3050F48EE794E064E00E94ED
:100F50009F148EE794E06EE00E949F14802F8251D0
:100F6000823050F48EE794E066E00E949F148EE792
:100F700094E061E00E949F148EE794E06FE70E9486
:100F80009F140F5F1F5F043109F0A2CF6AC0662370
:100F900009F46CC008818EE794E060EF0E949F1412
:100FA0008EE794E06EE60E949F148EE794E0602F37
:100FB0000E949F14043108F054C0C02FD0E0FE01FD
:100FC000E85DFD4F8EE794E060810E949F148E01E2
:100FD000000F111F015C1D4FF80160816F778EE7D4
:100FE00094E00E949F14F80160817181CB018078A8
:100FF000892B49F0660F672F661F770B6F778EE797
:1010000094E00E949F14CC0FDD1FC15CDD4F28814E
:101010003981C9018070907C892B19F1330F220B23
:10102000330F322F221F622F6F778EE794E00E94DA
:101030009F1417C08EE794E060EF0E949F148EE724
:1010400094E06AE60E949F1402EF063010F06FE70A
:1010500001C0602F8EE794E00E949F140F5F06305E
:10106000A1F78EE794E067EF0E949F14DF91CF9184
:101070001F910F91FF90EF90DF90CF90BF90089558
:10108000FC018091CE028C3090F480838F5F80933E
:10109000CE02815090E0FC01EE0FFF1FE80FF91F18
:1010A000E153FD4F88EB9BE09283818308958FEF9E
:1010B00080830895DC018C9190E0FC01EE0FFF1F0E
:1010C000E80FF91FE153FD4F80818F7B80838C9166
:1010D0006CE00E94CC1590E0AC01440F551F480F06
:1010E000591F440F551F440F551F20E030E0C90120
:1010F000840F951FFC01EE0FFF1FE80FF91FE1534E
:10110000FD4F808186FD05C02F5F3F4F2C3031059C
:1011100071F70895FC0120812C30B8F58181992761
:1011200087FD909548E850E0481B590B440F551F28
:10113000440F551F6417750784F08281992787FD36
:10114000909548E552E0481B590B440F551F440F3A
:10115000551F641775070CF4AB0142505040CA018B
:10116000AA2797FDA095BA2F880F991FAA1FBB1F0A
:101170004FB7F89430E0F901EE0FFF1FE20FF31FB5
:10118000E153FD4F928381834FBF0895FC0180811D
:1011900090E0FC01EE0FFF1FE80FF91FE153FD4F38
:1011A0008081829586958695817009F081E0089509
:1011B000AF92BF92CF92DF92EF92FF920F931F9365
:1011C000CF93DF93EC019B0182E0603278070CF053
:1011D00048C077FF03C020E030E005C0653B7105E3
:1011E00014F024EB30E000D000D0B901882777FD5F
:1011F0008095982F2981332727FD3095E8E8AE2E7A
:10120000B12CA21AB30AAA0CBB1CAA0CBB1CCC247E
:10121000B7FCC094DC2CEA81FF27E7FDF09528E5B8
:1012200032E02E1B3F0B220F331F220F331F4427A8
:1012300037FD4095542FEDB7FEB7218332834383AA
:10124000548320E030E040E050E004EBE02EF12C4D
:10125000012D112D0E9464159B010F900F900F908E
:101260000F90CE01B9010E948A08DF91CF911F91A2
:101270000F91FF90EF90DF90CF90BF90AF900895C7
:10128000CF92DF92EF92FF921F93CF93DF93EC0107
:10129000162F7A01690188818C3008F064C0862F8E
:1012A00061E00E94A212888190E0FC01EE0FFF1F16
:1012B000E80FF91FE153FD4F1F738081807C812B64
:1012C000808380E292E08E199F0964E070E00E94C2
:1012D000D815698380E699E08C199D0964E070E077
:1012E0000E94D8156A83A8818A2F6CE00E94CC15D1
:1012F000682F70E0AB01440F551F460F571F440F76
:10130000551F440F551F20E030E0C901840F951F81
:10131000FC01EE0FFF1FE80FF91FE153FD4F808125
:1013200086FD15C02F5F3F4F2C30310571F724C06B
:101330001092800082E080938100109285001092CC
:101340008400B19A80916F00826080936F008A2F31
:1013500090E0FC01EE0FFF1FE80FF91FE153FD4F76
:101360008081806480838881DF91CF911F91FF907D
:10137000EF90DF90CF900895672BD1F2E8CF40E255
:1013800052E020E639E00E94400908951F920F9232
:101390000FB60F9211242F933F934F935F936F9348
:1013A0007F938F939F93AF93BF93EF93FF9380911E
:1013B000F30287FF05C010928500109284002BC0B5
:1013C0002091F302332727FD30958091CE0290E0E3
:1013D0002817390704F58091F302992787FD909526
:1013E000FC01EE0FFF1FE80FF91FE153FD4F808155
:1013F00086FF11C08091F302992787FD9095FC012B
:10140000EE0FFF1FE80FF91FE153FD4F80818F732F
:1014100060E00E94C8128091F3028F5F8093F30214
:101420002091F302332727FD30958091CE0290E082
:10143000281739070CF04EC08091F3028C300CF065
:1014400049C020918400309185008091F302992752
:1014500087FD9095FC01EE0FFF1FE80FF91FE15388
:10146000FD4F81819281280F391F3093890020938D
:1014700088008091F302992787FD9095FC01EE0F7B
:10148000FF1FE80FF91FE153FD4F808186FF2AC03F
:101490008091F302992787FD9095FC01EE0FFF1FC5
:1014A000E80FF91FE153FD4F80818F7361E00E94C7
:1014B000C81218C080E49CE905C080918400909116
:1014C0008500049690938900809388008FEF809325
:1014D000F30208C0809184009091850084549C4957
:1014E00048F3EBCFFF91EF91BF91AF919F918F9117
:1014F0007F916F915F914F913F912F910F900FBE10
:101500000F901F90189581E0809339036093160324
:10151000109237031092380308952091150330E09C
:1015200080911403281B3109C901089540911403C7
:1015300080911503481718F02FEF3FEF0AC0E42FF2
:10154000F0E0EC50FD4F8081282F30E04F5F40935A
:101550001403C9010895E091140380911503E8175D
:1015600018F0EFEFFFEF06C0F0E0EC50FD4F808188
:10157000E82FF0E0CF010895089510923D031092F6
:101580003C0388EE93E0A0E0B0E080933E039093AC
:101590003F03A0934003B093410383E092E0909314
:1015A0003B0380933A030895CF92DF92EF92FF922C
:1015B0000F931F93CF93DF937C016B018A0180917E
:1015C00039038823A1F0C0E0D0E00DC0D701ED9130
:1015D000FC91D601AC0FBD1F0190F081E02DC70139
:1015E0006C9109952196C017D10780F304C0CB01F7
:1015F000642F0E94D70BC801DF91CF911F910F91EB
:10160000FF90EF90DF90CF900895DF93CF930F92EC
:10161000CDB7DEB7FC016983809139038823C9F017
:1016200080913803803238F081E090E093838283A8
:1016300020E030E015C080913703E82FF0E0E95E4C
:10164000FC4F998190838F5F809337038093380399
:1016500005C0CE01019661E00E94D70B21E030E089
:10166000C9010F90CF91DF9108958091160367E132
:1016700073E04091380321E00E94940B10923703ED
:1016800010923803109239030895413208F040E275
:10169000862F64EF72E00E945D0B1092140380931A
:1016A0001503089510921403109215031092370336
:1016B000109238030E946D0D0895982F413210F05A
:1016C00040E030C0809146038823E1F781E08093B9
:1016D00046038FEF8093B10310926C034150409307
:1016E0006D034F5F990F91609093470385EE809350
:1016F000BC00809146038130E1F380916C03841734
:1017000010F440916C0320E030E00AC0FB01E20FCE
:10171000F31FD901A45BBC4F8C9180832F5F3F4F97
:101720002417A0F3842F08951F93582F122F4132AE
:1017300010F081E03AC0809146038823E1F782E00F
:10174000809346038FEF8093B10310926C03409314
:101750006D03ACE4B3E0FB0102C081918D938E2F49
:10176000861B8417D0F3852F90E0880F991F8093F4
:10177000470385EE8093BC00112321F0809146033E
:101780008230E1F38091B1038F3F11F480E00DC00E
:101790008091B103803211F482E007C08091B103DF
:1017A000803311F084E001C083E01F910895482F39
:1017B000613210F081E0089580914603843011F089
:1017C00082E0089560938F03AEE6B3E0842F9C011E
:1017D000F90102C081918D938E2F841B8617D0F35F
:1017E00080E008951F920F920FB60F9211242F934D
:1017F0003F934F935F936F937F938F939F93AF9399
:10180000BF93EF93FF938091B90090E0887F907031
:101810008036910509F4DCC081369105CCF588321B
:10182000910509F47BC089329105B4F480319105AA
:1018300009F46FC0813191053CF4009709F431C17E
:10184000089709F039C165C08831910509F466C06F
:10185000809709F031C17DC08034910509F49FC0A3
:101860008134910544F48033910509F47DC0C89713
:1018700009F022C184C08035910509F484C08835FF
:10188000910509F491C08834910509F015C198C0FB
:101890008839910509F4FDC089399105ECF4883740
:1018A000910509F495C0893791054CF48836910566
:1018B00009F48EC08037910509F0FEC089C08838D0
:1018C000910509F4E6C08039910509F487C0803894
:1018D000910509F0F1C082C0803B910509F4B0C0C8
:1018E000813B91054CF4803A910509F489C0883A0E
:1018F000910509F0E1C0A4C0803C910509F4CDC078
:10190000883C910509F4C9C0883B910509F0D4C011
:10191000ACC0809147038093BB00B9C090916C0329
:1019200080916D03981768F490916C03E92FF0E0B3
:10193000E45BFC4F80818093BB009F5F90936C03BE
:10194000A6C085ED8093BC008091BC0084FDFCCFD7
:10195000B1C080E28093B10385ED8093BC0080919B
:10196000BC0084FDFCCFA6C080E38093B10385ED6D
:101970008093BC008091BC0084FDFCCF9BC088E3B9
:101980008093B1038AC080916C039091BB00E82FD3
:10199000F0E0E45BFC4F90838F5F80936C03909149
:1019A0006C0380916D0371C080916C039091BB00BA
:1019B000E82FF0E0E45BFC4F90838F5F80936C0333
:1019C00085ED8093BC008091BC0084FDFCCF72C08B
:1019D00083E0809346031092B00359C08091B00316
:1019E000803208F056C08091B0039091BB00E82F80
:1019F000F0E0E057FC4F90838F5F8093B00347C0C7
:101A00008091B003803230F4E091B003F0E0E05711
:101A1000FC4F108285ED8093BC008091BC0084FD5A
:101A2000FCCF109246036091B003E0914A03F0911D
:101A30004B0380E993E070E009951092B0032DC04C
:101A400084E08093460310928E0310928F03E091FE
:101A50004803F0914903099580918F03882329F465
:101A600081E080938F0310926E0390918E03E92F93
:101A7000F0E0E259FC4F80818093BB009F5F909320
:101A80008E0390918E0380918F03981710F485EC4C
:101A900001C085E88093BC000FC085EC8093BC003A
:101AA00009C01092B10385ED8093BC008091BC0009
:101AB00084FDFCCF10924603FF91EF91BF91AF914F
:101AC0009F918F917F916F915F914F913F912F9156
:101AD0000F900FBE0F901F9018951092460382E151
:101AE00061E00E94C81283E161E00E94C812E9EB44
:101AF000F0E080818E7F808380818D7F808388E489
:101B00008093B80085E48093BC000895EF92FF9223
:101B10000F931F937C018B01DC01ED91FC91A0815F
:101B2000B1816F772D913C91CF01F9010995D701D2
:101B3000ED91FC91A081B181000F012F001F110BCD
:101B40000F772D913C91CF01602FF90109951F91DD
:101B50000F91FF90EF900895FC010190F081E02D2E
:101B6000A081B1812D913C91CF0160EFF9010995E0
:101B70000895FC010190F081E02DA081B1812D91AB
:101B80003C91CF0167EFF901099508950F931F93D9
:101B90008C01DC01ED91FC91A081B1812D913C91F2
:101BA000CF0169EFF9010995D801ED91FC91A08170
:101BB000B1812D913C91CF0162E0F9010995D801E5
:101BC000ED91FC91A081B1812D913C91CF0163E019
:101BD000F90109951F910F9108951F93CF93DF93FA
:101BE000EC018A818823C9F1CE010E94AC0DE88105
:101BF000F981A081B1812D913C91CF0169E7F90173
:101C00000995E881F981A081B1812B813C814D91B9
:101C10005C91CF01F9016081FA010995E881F981B0
:101C2000A081B1812B813C814D915C91CF01F90163
:101C30006181FA01099512E00AC0EB81FC81E10F94
:101C4000F11D6081CE0170E00E94860D1F5F8A81C8
:101C5000181798F3CE010E94B90DDF91CF911F9113
:101C60000895FC01A081B181ED91FC911197048050
:101C7000F581E02DCD0109950895EF92FF920F9324
:101C80001F938C017A01DC01ED91FC91A081B1815F
:101C90006F70606E2D913C91CF01F9010995C801DB
:101CA000B7010E94860D1F910F91FF90EF9008954C
:101CB000EF92FF920F931F937C018A01DC01ED915B
:101CC000FC91A081B1816F7060692D913C91CF0131
:101CD000F9010995D701ED91FC91A081B181602FA7
:101CE0006F772D913C91CF01F9010995D701ED91C5
:101CF000FC91A081B181000F012F001F110B2D91CC
:101D00003C91CF01602FF90109951F910F91FF9030
:101D1000EF900895DF92EF92FF920F931F93CF936E
:101D2000DF93EC01162FD42E022FF32E0E94AC0D60
:101D3000E881F981A081B1812D913C91CF01612F82
:101D4000F9010995202F3F2DC9017C0110E008C041
:101D5000F70161917F01CE0170E00E94860D1F5F47
:101D60001D15B0F3CE010E94B90DDF91CF911F91E7
:101D70000F91FF90EF90DF900895FC01603DA9F076
:101D8000613D28F4603959F0603CA1F40BC0603E1D
:101D900019F0643F79F40CC054A743A7089556A7DF
:101DA00045A7089550AB47A7089552AB41AB08959E
:101DB00054AB43AB0895FC016F3F11F456AB45ABF8
:101DC0000895FC0152AF41AF0895FC0115821682BF
:101DD0001782DC0180E018961C9218978F5F11968D
:101DE0008032C9F710A612A611A605A8F6A9E02D03
:101DF000309709F009950895FC0171836083128280
:101E00000E94E50E089582EB93E06EE774E00E9475
:101E1000FC0E08954F925F926F927F928F929F92E5
:101E2000AF92BF92CF92DF92EF92FF920F93DF9328
:101E3000CF9300D0CDB7DEB72B017A013A83298347
:101E40008DE061E00E94A21200E089819A813C014C
:101E5000882477FC8094982C5701CC24B7FCC0943C
:101E6000DC2C11C0C401B3010E9482118DE061E03D
:101E70000E94C812C601B5010E9482118DE060E087
:101E80000E94C8120F5F802F90E08415950554F3CF
:101E90000F900F90CF91DF910F91FF90EF90DF9017
:101EA000CF90BF90AF909F908F907F906F905F90FA
:101EB0004F9008950F931F938C018DE061E00E9475
:101EC000A212C80162E070E048E250E022ED30E08A
:101ED0000E940A0F6AEF70E080E090E00E94821199
:101EE000C80163E070E048E250E022ED30E00E947B
:101EF0000A0F6DE770E080E090E00E9482111F9170
:101F00000F9108959A01FA0101900020E9F73197A5
:101F1000E41BF50B4E2F0E948A0E0895AB0161E77A
:101F20000E94820F08951F93CF93DF93EC01888561
:101F3000813731F0893789F5CE010E94ED0D36C029
:101F40008FA998AD892B91F189A59AA5019762E097
:101F500070E00E94D815162F862F90E00E948F0007
:101F6000AC01DC0121E030E011C0FE01E20FF11D07
:101F700090859C932F5FFE01E20FF11D8085879570
:101F800088278795890F8D932F5F3F5F311768F3FF
:101F9000EFA9F8ADCA01099509C0E9ADFAAD3097CE
:101FA00029F069A561502996AE010995DF91CF917D
:101FB0001F910895CF93DF93EC01A881B981ED9132
:101FC000FC9111970680F781E02DCD010995AC01B8
:101FD00088A5882391F0473F510529F418A6CE0122
:101FE0000E94930F93C089A59AA5FE01E80FF91FDF
:101FF000408701969AA789A789C08D81882309F413
:1020000046C0403851050CF042C081508D83FE011E
:10201000E80FF11D4087882309F078C08E8188235E
:1020200009F474C0803D49F1813D28F4803959F0AC
:10203000803C59F51FC0803E19F0843F31F513C034
:10204000EBA5FCA502C0EDA5FEA53097F1F06885D3
:1020500070E07695762F6627779567958985680F66
:10206000711D8F8111C0EBA9FCA9309771F06885B3
:10207000898509C0EFA5F8A902C0E9A9FAA9309796
:1020800021F068858F8170E009951E823FC0403F36
:10209000510514F09A0106C09A01207F3070842FF8
:1020A0008F708F83203E3105F1F0213E310554F4CD
:1020B000203C3105D1F0203D3105B9F02039310502
:1020C00029F511C0243F310571F0253F310524F475
:1020D000203F3105D9F40DC0293F310599F02F3F3C
:1020E0003105A1F40BC082E001C081E08D832E8315
:1020F0000DC081E088A71AA619A608C0CE010E94CB
:10210000E50E04C082EB93E00E94C60DDF91CF91F3
:102110000895AF92BF92CF92DF92EF92FF920F930A
:102120001F93CF93DF938C01D62EC72EB42EA22EF1
:10213000862F972F60EF71E00E94AB01EC018D2D8F
:102140009C2D6FE270E00E94A001209779F07C0145
:102150000894E11CF11CE114F10441F09E012E5F92
:10216000822F8E19D80112968C930FC0AD2DBC2DE5
:10217000FD0101900020E9F7ED19EF5FD8011296FB
:10218000EC932D2D3C2DC9017C01F801828190E05A
:102190000E948F00FC01D80114969C938E93139794
:1021A00012968C911297E80FF11D10821396ED9103
:1021B000FC911497B0821396ED91FC911497A18233
:1021C00013968D919C91149712964C9150E0425029
:1021D00050400296B7010E949101DF91CF911F916B
:1021E0000F91FF90EF90DF90CF90BF90AF90089548
:1021F0000F931F938C018EE794E00E94AD13D801DA
:10220000ED91FC918091800490918104938382836D
:102210008091820490918304A0918404B0918504FC
:1022200084839583A683B7838091860490918704E5
:10223000A0918804B091890480879187A287B38791
:10224000C8010E945A0FC8010E94C60DC8010E9411
:10225000ED0D1F910F9108951F920F920FB60F92DF
:1022600011242F933F938F939F93AF93BF938091AC
:10227000F1039091F203A091F303B091F403309134
:10228000F5030196A11DB11D232F2D5F2D3720F0E1
:102290002D570196A11DB11D2093F5038093F103E5
:1022A0009093F203A093F303B093F4038091ED03B2
:1022B0009091EE03A091EF03B091F0030196A11D60
:1022C000B11D8093ED039093EE03A093EF03B093C1
:1022D000F003BF91AF919F918F913F912F910F90FC
:1022E0000FBE0F901F9018958FB7F8942091F103AF
:1022F0003091F2034091F3035091F4038FBFB90181
:10230000CA0108959B01AC017FB7F8948091ED0359
:102310009091EE03A091EF03B091F00366B5A89BF6
:1023200005C06F3F19F00196A11DB11D7FBFBA2FE7
:10233000A92F982F8827860F911DA11DB11D62E03E
:10234000880F991FAA1FBB1F6A95D1F7BC012DC02A
:10235000FFB7F8948091ED039091EE03A091EF0305
:10236000B091F003E6B5A89B05C0EF3F19F00196C8
:10237000A11DB11DFFBFBA2FA92F982F88278E0F3F
:10238000911DA11DB11DE2E0880F991FAA1FBB1F5F
:10239000EA95D1F7861B970B885E9340C8F22150CF
:1023A00030404040504068517C4F21153105410577
:1023B000510571F60895019739F0880F991F880F1C
:1023C000991F02970197F1F70895789484B5826078
:1023D00084BD84B5816084BD85B5826085BD85B5C9
:1023E000816085BDEEE6F0E0808181608083E1E878
:1023F000F0E01082808182608083808181608083B0
:10240000E0E8F0E0808181608083E1EBF0E08081B2
:1024100084608083E0EBF0E0808181608083EAE784
:10242000F0E080818460808380818260808380810D
:10243000816080838081806880831092C1000895CC
:10244000982F8E3008F09E5097708091FE018295F3
:10245000880F880F807C892B80937C0080917A0084
:10246000806480937A0080917A0086FDFCCF209171
:10247000780040917900942F80E030E0282B392BB0
:10248000C90108951F93CF93DF93182FEB0161E0EB
:102490000E94A212209709F44AC0CF3FD10509F447
:1024A00049C0E12FF0E0E255FF4F84918330C1F045
:1024B000843028F4813051F08230B1F50CC0863080
:1024C00019F1873049F1843079F514C084B58068FA
:1024D00084BDC7BD33C084B5806284BDC8BD2EC075
:1024E00080918000806880938000D0938900C093A1
:1024F000880024C080918000806280938000D09307
:102500008B00C0938A001AC08091B00080688093CD
:10251000B000C093B30012C08091B000806280937D
:10252000B000C093B4000AC0C038D1051CF4812F9C
:1025300060E002C0812F61E00E94C812DF91CF915C
:102540001F910895482F50E0CA0186569F4FFC0105
:1025500024914A575F4FFA0184918823C1F0E82FF4
:10256000F0E0EE0FFF1FE859FF4FA591B4916623ED
:1025700041F49FB7F8948C91209582238C939FBF50
:1025800008959FB7F8948C91822B8C939FBF0895E8
:10259000482F50E0CA0182559F4FFC012491CA0187
:1025A00086569F4FFC0194914A575F4FFA01349130
:1025B000332309F440C0222351F1233071F0243039
:1025C00028F42130A1F0223011F514C02630B1F0EA
:1025D0002730C1F02430D9F404C0809180008F7777
:1025E00003C0809180008F7D8093800010C084B5EF
:1025F0008F7702C084B58F7D84BD09C08091B00003
:102600008F7703C08091B0008F7D8093B000E32F5F
:10261000F0E0EE0FFF1FEE58FF4FA591B4912FB7DA
:10262000F894662321F48C919095892302C08C91B3
:10263000892B8C932FBF089508951F920F920FB688
:102640000F9211242F933F934F938F939F93EF9368
:10265000FF934091C60020913604309137042F5FDC
:102660003F4F2F73307080913804909139042817B0
:10267000390759F0E0913604F0913704EA50FC4FE5
:1026800040833093370420933604FF91EF919F915C
:102690008F914F913F912F910F900FBE0F901F90F0
:1026A0001895E0918A04F0918B04E05CFF4F8191D2
:1026B000919120813181821B930B8F739070892BB4
:1026C00011F00E941C1308951F920F920FB60F92E3
:1026D00011242F933F934F935F936F937F938F9327
:1026E0009F93AF93BF93EF93FF9320917A04309120
:1026F0007B0480917C0490917D042817390731F484
:102700008091C1008F7D8093C10016C0E0917C0450
:10271000F0917D04E65CFB4F408180917C049091B8
:102720007D04019660E470E00E94D81590937D04CA
:1027300080937C044093C600FF91EF91BF91AF91CD
:102740009F918F917F916F915F914F913F912F91C9
:102750000F900FBE0F901F901895AF92BF92DF920F
:10276000EF92FF920F931F93CF93DF93EC017A01C7
:102770008B01DD24403081EE580780E0680780E05F
:10278000780711F0DD24D39491E0A92EB12CEC89C7
:10279000FD89DD2069F0C5010E8C02C0880F991FEC
:1027A0000A94E2F7808360E079E08DE390E005C071
:1027B000108260E874E88EE190E0A80197010E9421
:1027C000EB15215030404040504056954795379585
:1027D000279580E12030380720F0DD2011F0DD243E
:1027E000D6CFE889F9893083EA89FB892083EE898D
:1027F000FF89408121E030E0C9010A8C02C0880FC6
:10280000991F0A94E2F7482B4083EE89FF894081A3
:10281000C9010B8C02C0880F991F0A94E2F7482B5C
:102820004083EE89FF894081C9010C8C02C0880F6A
:10283000991F0A94E2F7482B4083EE89FF89808133
:102840000D8C02C0220F331F0A94E2F72095282333
:102850002083DF91CF911F910F91FF90EF90DF9038
:10286000BF90AF900895DC011C96ED91FC911D97EF
:10287000E05CFF4F2191319180819181281B390BC0
:102880002F733070C9010895DC011C96ED91FC9105
:102890001D97E05CFF4F20813181E054F040DF0163
:1028A000AE5BBF4F8D919C9111972817390719F492
:1028B0002FEF3FEF07C08D919C91E80FF91F8081AA
:1028C000282F30E0C9010895DC011C96ED91FC91A0
:1028D0001D97E05CFF4F20813181E054F040DF0123
:1028E000AE5BBF4F8D919C9111972817390719F452
:1028F0002FEF3FEF10C08D919C911197E80FF91FBA
:1029000020818D919C91119701968F7390701196F3
:102910009C938E9330E0C9010895FC0186859785CC
:10292000DC01A05CBF4FFC01EE5BFF4F2D913C91A1
:1029300011978081918128173907C1F70895CF93A6
:10294000DF93EC01462FEE85FF85E05CFF4F808131
:102950009181E054F040019660E470E00E94D81547
:102960009C01DF01AE5BBF4F8D919C9111972817A1
:102970003907D1F3E05CFF4F80819181E054F04052
:10298000E80FF91F4083EE85FF85E05CFF4F318340
:102990002083EE89FF89208181E090E00D8C02C0C8
:1029A000880F991F0A94E2F7282B208381E090E09A
:1029B000DF91CF910895109281041092800488EEE7
:1029C00093E0A0E0B0E08093820490938304A0930E
:1029D0008404B093850483E192E090937F04809314
:1029E0007E0486EF93E090938B0480938A048AE3BD
:1029F00094E090938D0480938C0485EC90E0909308
:102A00008F0480938E0484EC90E0909391048093E3
:102A1000900480EC90E0909393048093920481EC76
:102A200090E0909395048093940486EC90E09093CA
:102A300097048093960484E08093980483E08093C5
:102A4000990487E080939A0485E080939B0481E059
:102A500080939C040895CF93DF930E94E5110E9418
:102A60003604C1E5D3E10E944C052097E1F30E94B2
:102A70005113F9CFCF92DF92EF92FF920F931F93F2
:102A8000CF93DF937C016B018A01C0E0D0E00FC0DF
:102A9000D6016D916D01D701ED91FC910190F0810E
:102AA000E02DC7010995C80FD91F0150104001152D
:102AB000110571F7CE01DF91CF911F910F91FF901A
:102AC000EF90DF90CF9008952F923F924F925F92B8
:102AD0006F927F928F929F92AF92BF92CF92DF922E
:102AE000EF92FF920F931F93DF93CF93CDB7DEB793
:102AF0003B014C0119012A016D897E898F89988DCE
:102B00006A197B098C099D09621A730A840A950A5D
:102B1000A40193010E94AD15E218F30804091509F8
:102B2000A80197010E940D162A0D3B1D4C1D5D1D2D
:102B3000B901CA01CF91DF911F910F91FF90EF90E2
:102B4000DF90CF90BF90AF909F908F907F906F90CD
:102B50005F904F903F902F900895629FD001739F98
:102B6000F001829FE00DF11D649FE00DF11D929F29
:102B7000F00D839FF00D749FF00D659FF00D992768
:102B8000729FB00DE11DF91F639FB00DE11DF91F8C
:102B9000BD01CF0111240895991B79E004C0991F4C
:102BA000961708F0961B881F7A95C9F780950895A7
:102BB00097FB092E07260AD077FD04D049D006D00E
:102BC00000201AF4709561957F4F0895F6F790955F
:102BD00081959F4F0895A1E21A2EAA1BBB1BFD01F0
:102BE0000DC0AA1FBB1FEE1FFF1FA217B307E407EC
:102BF000F50720F0A21BB30BE40BF50B661F771F44
:102C0000881F991F1A9469F7609570958095909523
:102C10009B01AC01BD01CF01089597FB092E05264C
:102C20000ED057FD04D0D7DF0AD0001C38F45095E1
:102C30004095309521953F4F4F4F5F4F0895F6F7E0
:102C400090958095709561957F4F8F4F9F4F089518
:102C5000AA1BBB1B51E107C0AA1FBB1FA617B707C2
:102C600010F0A61BB70B881F991F5A95A9F78095DE
:102C70009095BC01CD010895EE0FFF1F0590F491D2
:082C8000E02D0994F894FFCF48
:102C8800556E6B6E6F776E2070696E206D6F646520
:102C980000433A5C55736572735C53616E74695C8A
:102CA800417070446174615C4C6F63616C5C546525
:102CB8006D705C6275696C64383237323936383316
:102CC80033363436393435363235362E746D705CD9
:102CD8005374616E646172644669726D6174612EC9
:102CE80063707000493243205265616420457272F6
:102CF8006F723A20546F6F206D616E79206279741B
:102D0800657320726563656976656400493243209E
:102D180052656164204572726F723A20546F6F2059
:102D28006665772062797465732072656365697674
:102D380065640031302D6269742061646472657362
:102D480073696E67206D6F6465206973206E6F7498
:102D58002079657420737570706F7274656400747F
:102D68006F6F206D616E792071756572696573008A
:102D78002E637070002000A10400001300FF010002
:102D8800000000050BD40A8D0A960AAB0ABC0A009B
:102D98000000009F143A153314641444148D140071
:00000001FF
